:020000040800F2
:1000000000500020610B00083F0B0008430B000864
:10001000470B00084B0B00084F0B000800000000C6
:10002000000000000000000000000000530B00086A
:10003000570B0008000000005B0B0008F1090008E6
:10004000A50B0008A50B0008A50B0008A50B0008D0
:10005000A50B0008A50B0008A50B0008A50B0008C0
:10006000A50B0008A50B0008A50B0008A50B0008B0
:10007000A50B0008A50B0008A50B0008A50B0008A0
:10008000A50B0008A50B0008A50B0008A50B000890
:10009000A50B0008A50B0008A50B0008A50B000880
:1000A000A50B0008A50B0008A50B0008A50B000870
:1000B000DD0A0008A50B0008A50B0008A50B000829
:1000C000A50B0008A50B0008A50B0008A50B000850
:1000D000A50B00080D090008A50B0008C9090008B8
:1000E000A50B0008A50B0008A50B000800000000E8
:1000F0000000000000000000000000000000000000
:0C01000000000000000000005FF808F1A3
:1001100086B0039002910192039B012B08D0039BB0
:10012000022B05D0104B09221A604FF0FF3318E064
:100130000023059310E000BF0C4B1B889BB203F01B
:100140008003002BF8D0029B5A1C02921A78074BAE
:100150009A80059B01330593059A019B9A42EADB3D
:10016000019B184606B070475C0200200038014031
:1001700088B003900291019200230693039B002B09
:1001800005D0154B09221A604FF0FF3320E0002301
:10019000079318E000BF114B1B889BB203F02003AC
:1001A000002BF8D00D4B9B889BB28DF81730029B2B
:1001B0005A1C02929DF817201A70069B0133069371
:1001C000079B01330793079A019B9A42E2DB069B48
:1001D000184608B0704700BF5C020020003801409C
:1001E00082B001904FF0FF33184602B0704782B0E2
:1001F00001900091009B4FF400525A600023184672
:1002000002B0704782B001900123184602B07047D7
:1002100084B00390029101920023184604B0704705
:1002200082B001900023184602B0704782B001905E
:1002300000BFFDE782B0019000914FF0FF331846F8
:1002400002B07047012318467047000008B5164BEE
:100250001B68154A43F001031360134B5A68124997
:10026000124B13404B60104B1B680F4A23F08473F2
:1002700023F4803313600C4B1B680B4A23F4802358
:100280001360094B5B68084A23F4FE035360064B76
:100290004FF41F029A6000F00DF8054B4FF000621A
:1002A0009A6000BF08BD00BF001002400000FFF8C8
:1002B00000ED00E008B500F003F800BF08BD000045
:1002C00082B00023019300230093394B1B68384A06
:1002D00043F480331360364B1B6803F40033009300
:1002E000019B01330193009B002B03D1019BB3F5CC
:1002F000A06FF0D12E4B1B6803F40033002B02D00B
:100300000123009301E000230093009B012B4BD1BC
:10031000284B1B68274A43F010031360254B1B68CA
:10032000244A23F003031360224B1B68214A43F045
:10033000020313601E4B1E4A5B6853601C4B1C4A31
:100340005B6853601A4B5B68194A43F480635360DF
:10035000174B5B68164A23F47C135360144B5B689D
:10036000134A43F4E8135360114B1B68104A43F0DF
:100370008073136000BF0E4B1B6803F00073002BEB
:10038000F9D00B4B5B680A4A23F003035360084B18
:100390005B68074A43F00203536000BF044B5B688D
:1003A00003F00C03082BF9D100BF02B0704700BF67
:1003B000001002400020024086B001900023059307
:1003C000002304930F230393019BDB78002B3AD087
:1003D000264BDB68DB431B0A03F007030593059BF1
:1003E000C3F104030493039A059B22FA03F30393D6
:1003F000019B5B781A46049B02FA03F30593019B69
:100400009B781A46039B1340059A13430593059B5B
:100410001B010593164A019B1B780599C9B2134429
:100420000A4683F80023019B1B7803F01F03104941
:10043000019A12785209D2B21046012202FA03F34D
:1004400041F820300FE0019B1B7803F01F0308499F
:10045000019A12785209D2B2104601229A4000F154
:10046000200341F8232000BF06B0704700ED00E0F4
:1004700000E100E084B001900B46ADF802300023AB
:100480008DF80F30019B9A68BDF802301340002BA5
:1004900003D001238DF80F3002E000238DF80F30D8
:1004A0009DF80F30184604B07047000084B00190EA
:1004B00000910023ADF80E30019B1B88ADF80E3083
:1004C000019B324A934213D0019B314A93420FD091
:1004D000019BB3F1804F0BD0019B2E4A934207D072
:1004E000019B2D4A934203D0019B2C4A93420CD18D
:1004F000BDF80E3023F07003ADF80E30009B5A8823
:10050000BDF80E301343ADF80E30019B244A9342E0
:1005100010D0019B234A93420CD0BDF80E3023F437
:100520004073ADF80E30009BDA88BDF80E301343EF
:10053000ADF80E30019BBDF80E201A80009B9A8802
:10054000019B9A85009B1A88019B1A85019B0F4A83
:1005500093420FD0019B0E4A93420BD0019B124A4B
:10056000934207D0019B114A934203D0019B104A4A
:10057000934204D1009B1B7A1A46019B1A86019B69
:1005800001229A8200BF04B0704700BF002C0140D6
:10059000003401400004004000080040000C00400E
:1005A00000100040001400400040014000440140A1
:1005B0000048014082B001900B468DF803309DF851
:1005C0000330002B08D0019B1B889BB243F0010332
:1005D0009AB2019B1A8007E0019B1B889BB223F013
:1005E00001039AB2019B1A8000BF02B0704782B02B
:1005F00001900B46ADF8023013468DF801309DF89E
:100600000130002B09D0019B9B899AB2BDF80230C2
:1006100013439AB2019B9A810AE0019B9B899AB28B
:10062000BDF80230DB439BB213409AB2019B9A8122
:1006300000BF02B0704784B001900B46ADF80230A5
:1006400000238DF80F300023ADF80C300023ADF8F7
:100650000A30019B1B8A9AB2BDF802301340ADF8F4
:100660000C30019B9B899AB2BDF802301340ADF863
:100670000A30BDF80C30002B07D0BDF80A30002B33
:1006800003D001238DF80F3002E000238DF80F30E6
:100690009DF80F30184604B0704782B001900B46A9
:1006A000ADF80230BDF80230DB439AB2019B1A82EA
:1006B00000BF02B0704782B00190019B9B889BB243
:1006C000C3F308039BB2184602B0704784B0019090
:1006D0000B46ADF8023000238DF80F30019B1B88CC
:1006E0009AB2BDF8023013409BB2002B03D0012315
:1006F0008DF80F3002E000238DF80F309DF80F3099
:10070000184604B0704786B001900B46ADF8023031
:1007100000230393002305930023029300238DF805
:100720001330BDF80230DBB25B09DBB20293BDF8D7
:10073000023003F01F0305930122059B02FA03F325
:100740000593029B012B07D1019B9B899BB21A4603
:10075000059B1340059311E0029B022B07D1019BDF
:100760001B8A9BB21A46059B1340059306E0019B2A
:100770009B8A9BB21A46059B13400593BDF8023035
:100780001B0A9BB203930122039B02FA03F3039318
:10079000019B1B889BB21A46039B13400393059B46
:1007A000002B06D0039B002B03D001238DF81330C0
:1007B00002E000238DF813309DF81330184606B080
:1007C000704784B001900B46ADF802300023ADF8BD
:1007D0000E300023ADF80C30BDF802301B0AADF826
:1007E0000E30BDF80E30012202FA03F3ADF80C30E2
:1007F000BDF80C30DB439AB2019B1A8000BF04B0F5
:100800007047000008B54FF480713948FFF732FE99
:100810000346002B1FD1374B1B8801339AB2354B4F
:100820001A80354B1B78002B06D1324B1B88052BC9
:1008300002D9314B01221A702F4B1B78012B1BD18F
:100840002C4B1B88C82B17D92B4B02221A702B4B11
:1008500002221A7010E0284B1B78012B03D1274B82
:1008600001221A7002E0254B00221A70224B00224E
:100870001A70204B00221A804FF400611C48FFF7C9
:10088000F9FD0346002B1FD11D4B1B8801339AB283
:100890001B4B1A801B4B1B78002B06D1184B1B8857
:1008A000052B02D9174B01221A70164B1B78012B0E
:1008B0001BD1134B1B88C82B17D9124B02221A705D
:1008C000114B02221A7010E00E4B1B78012B03D142
:1008D0000D4B01221A7002E00B4B00221A70094BDB
:1008E00000221A70064B00221A8000BF08BD00BF0C
:1008F00000080140CC010020CA010020C8010020EE
:10090000CE010020CB010020C901002000B583B03A
:1009100040F225512948FFF7F6FE0346002B48D048
:1009200040F225512548FFF74CFF2448FFF7C3FE4E
:1009300003468DF807302148FFF7BDFE03468DF8CA
:1009400007301F4B1B881BB2002B32DB9DF8073092
:10095000212B19D11A4B1B886FEA43436FEA53438B
:100960009AB2174B1A80164B1B88C3F30D03154917
:100970009DF80720CA54124B1B88C3F30D030133A3
:10098000104A0021D15414E00D4B1B88C3F30D0312
:100990000C499DF80720CA54094B1B8801339AB2B1
:1009A000074B1A80064B1B887F2B02D9044B002271
:1009B0001A8000BF03B05DF804FB00BF003801409F
:1009C00050020020D001002008B540F22551074810
:1009D000FFF77CFE0346012B05D140F22551034869
:1009E000FFF7EFFE00BF00BF08BD00BF004800409A
:1009F00008B50B4B1B680133094A1360094B1B7880
:100A00000133DAB2074B1A70064B1B78092B04D955
:100A1000044B00221A70FFF7F5FE00BF08BD00BFAF
:100A200054020020580200200C4B9B690B4A43F0F3
:100A3000100393610A4B5B68094A23F47003536007
:100A4000074B5B68064A43F480135360044BDB6832
:100A5000034A43F40053D36000BF704700100240C4
:100A60000010014000B585B01B4BDB691A4A43F00A
:100A70000103D3614723ADF8043040F2E733ADF80A
:100A800008300023ADF80A300023ADF8063001AB82
:100A900019464FF08040FFF709FD012201214FF078
:100AA0008040FFF7A4FD1C238DF8003001238DF852
:100AB000013001238DF8023001238DF803306B469D
:100AC0001846FFF779FC01214FF08040FFF772FDD7
:100AD00000BF05B05DF804FB0010024008B501211D
:100AE0004FF08040FFF7A7FD0346002B19D00121EE
:100AF0004FF08040FFF7D1FD0B4B1B8801339AB2BA
:100B0000094B1A80084B1B8840F67D62934208D936
:100B1000054B00221A80054BDB68044A83F400531E
:100B2000D36000BF08BD00BF5A0200200010014082
:100B300008B5FFF779FFFFF795FF00BFFDE700BF9E
:100B4000704700BFFDE700BFFDE700BFFDE700BF46
:100B5000FDE700BF704700BF704700BF704700004F
:100B6000002103E00A4B5B584350043109480A4B0B
:100B700042189A42F6D3094A02E0002342F8043BA5
:100B8000074B9A42F9D3FFF761FBFFF7D1FF70479C
:100B90009057000800000020C8010020C801002074
:100BA000A4030020FEE700002DE9F04D002B88B0E3
:100BB00014461D46109E1299DDF8508041DB00223C
:100BC000B8F1650F0A7039D040DCB8F1450F35D067
:100BD000B8F1460F5FD103230093139B2246CDE962
:100BE000016307AB049306AB03932B4600F0FEFBB7
:100BF000074628F02003462B07EB060805D13B7873
:100C0000302B3CD0139B1E68B0442046294600225E
:100C1000002304F095FB00283BD1079B984506D99B
:100C200030215A1C07921970079B4345F9D3384667
:100C3000159ADB1B136008B0BDE8F08D0223013666
:100C4000CAE703F1004B2D225D46B9E7B8F1660F04
:100C5000C1D0139B2246CDE901630223009307AB69
:100C6000049306AB03932B4600F0C0FBB8F1670F6B
:100C70000746BED1119BDB0721D4079BD7E7002293
:100C800000232046294604F05BFBD8B1139B1B6868
:100C900098444346CBE7139B2246CDE901630223E8
:100CA000009307AB049306AB03932B4600F09EFB27
:100CB000B8F1470F07469CD1119BDB07DDD507EB49
:100CC0000608A2E7139BC6F101061E609CE700BF61
:100CD0000029B4BF2D232B2330B5B8BF49420929C1
:100CE00083B0027043702CDD0DF107042346194DCB
:100CF0008C461A46A5FB01E3DB0803EB830EA1EB50
:100D00004E0101F1300EBCF1630F194602F801ECFF
:100D100002F1FF33ECDC303103F8011C931EA342D7
:100D200000F102050AD2411C13F801CBA34201F8DD
:100D300001CFF9D10DF109031D44AD1A281A03B0F2
:100D400030BD3023051D1944C1708370281A03B0CB
:100D500030BD00BFCDCCCCCC2DE9F04F93B00C46CC
:100D60001646DDF870B01F46054600F097FA036896
:100D700018460C9301F096FB00231093DBF800302B
:100D80002268073323F00703F3E8028994F818A0D8
:100D9000CBF8003029F000430993CDF820800D9066
:100DA0000B92C4E91289DDE908014FF0FF32A04B34
:100DB00004F0F8FA40B9DDE908014FF0FF329C4B2E
:100DC00004F0D2FA002878D042464B4640464946C5
:100DD00004F0E8FA002840F020820B9B0AF0DF0BB9
:100DE00043F4806163685A1C35D0BBF1470F00F0B3
:100DF00027810093216001910021069110A905919E
:100E00000FA903910DF13B014B4642462846CDF810
:100E100010A00291FFF7C8FE8146BAF1650F0F9945
:100E20003AD9BAF1660F00F08081109B8B4240F3F3
:100E300029810029CCBF0122C1F1020213442361A0
:100E40004FF0000BA1659DF83B30002B4ED02D23B9
:100E500084F843304AE02160019100210620069188
:100E600010A9CDF810A0606005910FA903910DF1B4
:100E70003B014B460090424628460291FFF794FE04
:100E8000BBF1470F8146C8D10F99C81C80F2F3808F
:100E9000AAF1020A5FFA8AFA5246013904F15000B7
:100EA0000F91FFF715FF109A83461318012A23614B
:100EB00040F3368101332361C5E7404649460022AD
:100EC000002304F047FA10B12D2384F84330BAF11F
:100ED000470F94BFDFF85C91DFF85C910B9B4FF0FC
:100EE000000B23F0040323600323236133462146D0
:100EF0002846009711AA01F0A7FD013023D02368EE
:100F000058052BD44A46314628462369B847013054
:100F100019D022689207E068119B19D5984217DD15
:100F20004FF0000804F1190904E0E068119BC21AAF
:100F300042450DDD01234A4631462846B847013077
:100F400008F10108F1D14FF0FF3013B0BDE8F08F88
:100F50009842B8BF184613B0BDE8F08FBAF1650FDC
:100F600033D9D4E912010022002304F0E9F9002862
:100F700000F09080012331462846304AB8470130BE
:100F8000E1D0DDE90F3A534502DB2268D107C1D534
:100F9000DDE90C2331462846B8470130D3D0BAF1F9
:100FA000010FB6DD4FF000090AF1FF3A04F11A080B
:100FB00001E0CA45ADD00123424631462846B84734
:100FC000013009F10109F4D1BDE7DDF84080B8F145
:100FD000010F40F3908001234A4631462846B84726
:100FE0000130B0D0DDE90C2331462846B847013046
:100FF000A9D0D4E912010022002308F1FF3A04F03D
:101000009FF9002800F09B80B8F1010F7EDD4FF0C2
:10101000000904F11A0801E0D14577D001234246C6
:1010200031462846B847013009F10109F4D18AE771
:10103000FFFFEF7F205400082454000830540008BC
:101040000BB9012363600093216001910021069197
:1010500010A905910FA903910DF13B014B46029197
:1010600042462846CDF810A0FFF79EFD0F99814615
:10107000C81CFFF60DAF636899423FF709AF4FF008
:10108000670AD2E623682161DB077FF5D9AE4B1CE6
:101090002361D5E60F9B002B5CDD109BD4F858B084
:1010A00098465B45A8BFD846B8F1000F089309DD04
:1010B00043464A4631462846B84701303FF443AFDD
:1010C000D4F858B028EAE87293457BDD4FF0000A67
:1010D000934604F11A0804E0A36DA3EB0B025245FA
:1010E0006FDD0123424631462846B84701300AF1F8
:1010F000010AF1D127E7D9073FF56DAF4A46012331
:1011000031462846B84701303FF41DAF5B463146B3
:10111000284604F15002B84701307FF4FAAE12E7D6
:101120002268D2077FF58FAEC4E6002963680ADD26
:101130002161002B39D001330B44236180E65346F3
:1011400009F10102DCE7002B34D12268D20731D447
:10115000012374E60123314628464C4AB847013042
:101160003FF4F1AEDDE90F3A5AEA030324D0DDE99A
:101170000C2331462846B84701303FF4E4AE0F9BBC
:10118000002B79DA4FF0000B04F11A0803E00F9BF3
:101190005B425B4570DD0123424631462846B84735
:1011A00001300BF1010BF2D1CDE62268D0077FF5BB
:1011B00047AEC0E7023342E62268D3077FF5AAAE06
:1011C000D5E79B460F9B0899994234DC2268D007EB
:1011D00031D4CB1AA1EB0B0A9A45A8BF9A462AEA4A
:1011E000EA7A53457FF795AE4FF00009DDF820B05D
:1011F00004F11A0807E00F9BABEB0303A3EB0A0310
:101200004B457FF786AE0123424631462846B84714
:10121000013009F10109EED195E64B46002BBCBF28
:101220002D2384F84330BAF1470F94BFDFF8609064
:10123000DFF8609052E63146DDE90C232846B847D6
:1012400001303FF480AE089A0F9BA2EB0B0AD31A31
:101250009A45A8BF9A46BAF1000F9046BFDD5346A3
:101260003146284609EB0B02B84701303FF46BAE1C
:1012700042460F9BD31AB2E753464A4631462846A8
:10128000B84701307FF445AE5DE600BF305400083A
:10129000285400082C540008F0307047004870476C
:1012A000F000002000487047F0000020000000001F
:1012B0002DE9F04F03690C6985B0A342C0F291801B
:1012C0008146013C01F1140509F1140855F8243058
:1012D00058F824C001339C45BCFBF3F64FEA840068
:1012E00005EB840708EB840243D34FF0000CAA46B9
:1012F000CDE90105C646634665469346CDF80C80A8
:101300005AF8040BDEF800201FFA80FC06FB0C558F
:101310004FEA10484FEA154C06FB08CCADB290B22C
:10132000401B18441FFA8CF3C3EB204303EB12431A
:1013300080B240EA034057454EF8040B4FEA1C4583
:101340004FEA2343DCD2DDE90105DDF80C8058F8D3
:10135000003073B9ABF10402904504D307E0904527
:1013600004F1FF3403D252F80439002BF7D0C9F846
:101370001040484602F09AF900282EDB4146002230
:1013800055F8040BD1F800C01FFA80FE1FFA8CF349
:10139000A3EB0E031344020CC2EB234202EB1C42EC
:1013A0009BB243EA0243AF4241F8043B4FEA224278
:1013B000E6D258F8242008EB84036AB9043B43457D
:1013C00004D807E0984504F1FF3403D253F8042908
:1013D000002AF7D0C9F810400136304605B0BDE804
:1013E000F08F002005B0BDE8F08F00BF2DE9F04F71
:1013F00016461F46C5699FB00446CDE90467002D17
:1014000000F0A381296849B101236A6893404A60CA
:101410008B6001F069FE0022E3691A60B7F10009F0
:10142000B4BF012300232B9AB8BF29F000491360F1
:10143000B34BB8BFCDF8149033EA090300F0A58090
:10144000DDE904231046194600220023CDE90201FC
:1014500003F076FF824668B101232A9A13602C9B21
:1014600013B1A84B2C9A1360A74B079307981FB092
:10147000BDE8F08F1CAB01931DAB00932046DDE966
:10148000022302F065FA5FEA1955DDF870800990D1
:1014900040F091801D9D454405F23243202B40F3DE
:1014A0003982C3F1400309FA03F905F2124326FA1F
:1014B00003F349EA030003F061FC0123013D1093AB
:1014C000A1F1F87319460022904B03F019FB86A393
:1014D000D3E9002303F0CCFC85A3D3E9002303F078
:1014E00011FB064628460F4603F058FC82A3D3E9B9
:1014F000002303F0BDFC02460B463046394603F09C
:1015000001FB06460F4603F063FF00228146089068
:1015100000233046394603F01DFF002840F02181AA
:10152000A8EB0508089D08F1FF3B162D00F2F88096
:10153000DDE90201764A02EBC503D3E9002303F09B
:1015400009FF002840F0E081B8F1000F0D9040F352
:101550006E85AB440C950A9000230B93289BE7699A
:10156000092B3CD8052BC4BF043B2893289BC8BF3C
:101570000025A3F10203D8BF0125032B31D8DFE8F2
:1015800013F0F902F602EB02D20142F20F732A9A2B
:10159000C9F3130959EA0609136019D12C9B002BD2
:1015A00000F042875B4B079308332C9A079813602F
:1015B0001FB0BDE8F08FDDE90201C1F3130343F072
:1015C0007F53CDF840A0A5F2FF3543F4401379E7EF
:1015D0002C9B002B40F0A3814F4B079346E7002341
:1015E00028930025204629467D6001F03DFD0790A7
:1015F000002800F0BB86E369079A1A601D9B002B48
:10160000C0F2BD80089A0E2A00F3B980DDE9028994
:101610003F4B404603EBC203D3E9006749463246DD
:101620003B46CDE9046703F04DFD03F0D1FE0546CE
:1016300003F0B4FB32463B4603F01AFC4FF0FF3A8E
:101640000B4602464946404603F05AFA05F130037C
:10165000079D05F8013B02944FF001095446DDE96E
:1016600004AB1DE052465B463046394603F02AFD86
:1016700003F0AEFE804603F091FB52465B4603F05A
:10168000F7FB09F101090B4602463946304603F0E3
:1016900037FA08F13003A14505F8013B00F04D850C
:1016A00000221E4B03F0E4FB0022002306460F46F7
:1016B00003F046FE0028D5D0AB46089F029C0137B8
:1016C0002046099901F010FD00238BF800302A9B79
:1016D0001F602C9B002B3FF4C9AE0798C3F800B0E5
:1016E0001FB0BDE8F08F00BF61436F63A787D23F93
:1016F000B3C8608B288AC63FFB799F501344D33F01
:101700000000F07F31540008305400080000F83F1A
:10171000705600083454000840540008000024406B
:1017200001230D93BBF1000FC0F2E88000230A9360
:10173000089B002B80F2DF800A9A089BD21A0A923B
:1017400000225B420C920B9308E7102000F09AFEF7
:10175000E061002800F06C86C0E90055C0E9025540
:101760005CE6484603F01AFB32463B4603F0E8FDD0
:1017700000287FF4D5AE09F1FF330893D0E64FF08F
:10178000FF3A2995CDF850A0109A002A40F0F58133
:101790001C9B0B9FC3F136030A9A01212046D518E2
:1017A0009B4401F0D3FD0A9A0646002A40F082834A
:1017B0000B9B002B00F0F783002F40F0DB832046CB
:1017C0000B9A099901F08CFE012309900B930121DA
:1017D000204601F0BBFD0C9B0290002B40F02083C3
:1017E000289B012B40F38D830120584410F01F00EB
:1017F00000F0CB81C0F12003042B40F3B6830A9B99
:10180000C0F11C00034405440A938344002D05DD08
:101810002A462046099901F0D7FE0990BBF1000F36
:1018200005DD5A462046029901F0CEFE02900D9B3E
:10183000002B40F0D982BAF1000F40F3B0820B9B2D
:10184000002B40F0FC81089F01370125DDF81C804A
:10185000DDF824B0DDF8089007E0594600230A229D
:10186000204601F065FC8346013549465846FFF79E
:101870001FFD554500F1300008F8010BEDDBBAF112
:10188000000F0AF1FF35D8BF0025079B81465A1C7F
:1018900005EB020A0025CDF824B001220999204663
:1018A00001F092FE0299099001F000FF002840F338
:1018B0007D83079A02E0924500F083831AF8013C89
:1018C000D346392B0AF1FF3AF5D001338AF80030BC
:1018D0002046029901F008FC002E3FF4F1AE2DB134
:1018E000B54203D02946204601F0FEFB3146204692
:1018F00001F0FAFBE4E69B440C932DE6C8F10103EA
:101900004FF0000B0A9313E7089B013B0893002359
:101910000D9307E7C3F1200306FA03F0CBE59E4BD6
:101920000793033341E601231293299B089A13443A
:1019300003F1010A5646012EB8BF01261493172E53
:1019400040F36285012204235B0003F11400B042DE
:10195000114602F10102F7D97960204601F084FBBB
:101960000790002800F00285E369BAF10E0F1860B5
:1019700000F22081002D00F01D81089A002A40F31A
:101980005E83864902F00F0301EBC303D1054FEAE2
:101990002215D3E9006740F1EE83DDE90201804BB7
:1019A0004FF00309D3E9082303F08CFBCDE90E01C6
:1019B00005F00F0585B1DFF8E881EA0740F1E18025
:1019C000F8E802233046394603F052FA6D10064615
:1019D0000F4609F10109F0D1DDE90E0132463B461F
:1019E00003F070FBCDE90E010D9B53B1DDE90E67ED
:1019F0000022304639466B4B03F0ACFC002840F027
:101A00006784484603F0CAF9DDE90E2303F030FA93
:101A10000022654B03F076F80646A1F15077BAF143
:101A2000000F00F0E182089BCDF854A01B935B4BA4
:101A300015991A9303EBC10353E90212CDE9186714
:101A4000DDE90E56CDE916122846314603F0C0FCFA
:101A500000F130035FFA83F803F0A0F90B46024669
:101A60003146284603F04CF8079B0F4612995D1C3F
:101A700006460E95002900F0B183DDE9162300200B
:101A80004A4903F01FFBDDE9182303F039F8024649
:101A90000B46DDF81CC0CDE912238CF800803246DD
:101AA0003B4603F075FC002840F07384DDF8548059
:101AB000CDF858B0CDF854A04FF00009DDE912ABD5
:101AC0000E942BE009F10109C14580F2CF81504607
:101AD00059460022364B03F0CBF90022344B8246A4
:101AE0008B463046394603F0C3F90F46064603F0ED
:101AF0006FFC044603F052F902460B463046394665
:101B000002F0FEFF303452465B4605F8014B0646B4
:101B10000F4603F01FFC002840F03A8432463B4653
:101B20000020204902F0ECFF52465B4603F012FC15
:101B30000028C7D01B9E0E9C079A013602E09542F2
:101B400000F0F683AB4615F8013D392BF7D0013391
:101B5000DBB237462B70B3E501231293299B002B90
:101B600040F3B781299B9A461E461493E7E600236B
:101B70001293DAE600231293F0E70B9F03F233434C
:101B80000AE66D1008F1080817E71C230A9A1D449D
:101B90001A440A929B4439E64054000870560008E3
:101BA000605700080000F03F00001C400000E03FCC
:101BB000000024401D9B002BC0F24881089A0E2A89
:101BC00000F34481A74B1A93089A1A9B03EBC203B4
:101BD000D3E90023CDE90423299B002B80F2D28294
:101BE000BAF1000F00F3CE8240F01782DDE9040164
:101BF00000229D4B03F03CF902460B46DDE9020151
:101C000003F0B2FB5146002840F008823123DDF892
:101C10001CB020460BF8013B01F066FA089F023722
:101C20004EE5314600230A22204601F081FA149B3A
:101C30000646002B40F3E283DDF850A008950A9B8E
:101C4000002B05DD31461A46204601F0BDFC064654
:101C50000C9B002B40F05A82B046079B03F1FF3BE0
:101C60001D460BEB0A030A93049BDDF824B003F036
:101C700001030B9302995846FFF71AFB314682463F
:101C8000584601F013FD029907464246204601F0EE
:101C90002DFDC36801460AF13009002B36D10990A9
:101CA000584601F003FD09990990204601F01CFAFD
:101CB000099B002B58D1289B1BB90B9B002B00F0D4
:101CC0008683002FC0F24F83AA460A9B0AF8019B25
:101CD0009D4200F07B82594600230A22204601F0F3
:101CE00027FA4645834631464FF000034FF00A027B
:101CF000204633D001F01CFA414600230A22064652
:101D0000204601F015FA55468046B3E72046CDF847
:101D100024B001F0E9F9002F06DB049B03F0010277
:101D2000289B1F433A432CD101220999204601F0F8
:101D30004BFC0299099001F0B9FC002840F32B8379
:101D4000B9F1390F00F0F7820AF13109AB46089F6B
:101D50003546013746460BF8019BB9E501F0E8F935
:101D600055460646804685E7002FC0F20683289A2E
:101D700017430B9A174300F00083002BA4DDCDF826
:101D800024B0B9F1390F00F0D682AB46089F09F1B3
:101D900001033546013746460BF8013B98E5289B81
:101DA000022B7FF74CADBAF1000F40F09181534602
:101DB00005220299204601F0BBF9014602900998DC
:101DC00001F074FC002840F383813123DDF81CB05E
:101DD000204602990BF8013B01F086F9089F023773
:101DE000002E7FF483AD6BE40299099801F05EFC4C
:101DF0000028BFF620AD00230A2220460999089D3D
:101E000001F096F90B9B013D0990002B7FF409AF7F
:101E1000149B002B40F3E782089FDDF850A014E5E7
:101E20001A460146204601F05BFB289B0290012BDD
:101E300040F35F8100230C93029A136902EB830342
:101E4000186901F01BFAC0F12000CEE4129ABAB969
:101E50000A9B002B6ED10B9B002B7CD11D461E468E
:101E6000B5E400BF70560008000014401D9B0E9C96
:101E7000002BDDE915AB03DB089A0E2A7FF7A4AE31
:101E8000289A012A7FF780AC0B9B0AF1FF37BB42EF
:101E9000C0F2FE80BAF1000FA3EB070780F2A08228
:101EA000012120460A9D01F051FA0646A5EB0A08D9
:101EB000CDF82880BBF1000F7FF77AAC0A9A5A451B
:101EC0001346A8BF5B46D21AED1A0A92ABEB030B7E
:101ED0006EE400212046796001F0C6F807900028E2
:101EE00000F04482E369079A1A60002D40F0FD80FB
:101EF0001D9B002BC0F2648201229246149229920B
:101F00005CE6049B002B7FF46FAC059BC3F31303CB
:101F1000002B7FF469AC059B23F000431B0D1B05D0
:101F2000002B3FF461AC0123013518460BF1010B86
:101F30000C935AE4BBF1000F00F0B8810A9A0B9E93
:101F40005A451346A8BF5B46D51AABEB030B0A955F
:101F5000002E3FF43CAC20460B9A099901F0C0FAE0
:101F6000002609900B960A9D31E43FF44FACC0F176
:101F70003C030BE631463A46204601F0B1FA0646EC
:101F8000DDF8248031464246204601F0F5F941460D
:101F90008046204601F0A8F80B9BCDF82480DB1B7F
:101FA0000B937FF40CAC01230B9310E403D119F0D5
:101FB000010F7FF47EACD3461AF8013D302BFAD0E6
:101FC00086E43123079A0137137081E4484602F012
:101FD000E5FEDDE90E2302F04BFF0022B64B02F0D6
:101FE00091FD0646A1F150770022DDE90E01B34BC9
:101FF00002F086FD32463B468046894603F0C8F92A
:10200000002840F0A38140464946324607F100438C
:1020100003F0A0F900283FF4CDAD0021204601F0E7
:1020200063F8299BDDF81CB05F42FFF749BBC8F19C
:1020300001030A93089B9B460C93FFF78DBA00F0AF
:102040006F81DDE90201089B9D4A5D4205F00F03A7
:1020500002EBC303D3E9002302F00AFF2D114FF076
:102060000209CDE90E013FF4BFAC964EEB070CD54B
:10207000DDE90E01F6E8022302F0FAFE6D10CDE96B
:102080000E0109F10109F1D1AEE46D100836EDE75A
:102090000B9B0C9ADDF82880FB1A1A44012120467C
:1020A0000C9201F053F943460646D34408EB0A0567
:1020B0000B97002B3FF483AB0A9A5A451346A8BFEF
:1020C0005B46D21AED1A0A92ABEB030BFFF777BB14
:1020D0002046029901F008F8299BDDF81CB05F4208
:1020E000002E7FF403ACFFF7EBBAAA4614952995AE
:1020F00043E4049B002B7FF49DAEDDE90412C2F3A0
:102100001303002B00F04E810C9195E62046716878
:1021100000F0AAFF0546002800F07F81336906F130
:102120000C0102339A000C3000F018FC0122294601
:10213000204601F049FA80468FE5029C02460B4694
:1021400002F0E0FCDDE90423089F824601378B465C
:102150003E4603F01DF948B9DDE9042350465946CF
:1021600003F0EEF820B118F0010F01D0079AE9E46E
:10217000AB46FFF7A5BADDE902234FF00209CDE92E
:102180000E2317E4079B01330E93DDE90256DDE9C8
:1021900004232846314602F095FF03F019F98046E2
:1021A00002F0FCFDDDE9042302F062FE02460B466C
:1021B0002846314602F0A4FC079A08F13003BAF130
:1021C000010F0E9D13707FF446AAB7E7089F3546AE
:1021D000CDF824B046460137FFF75FBBDDE9182391
:1021E000DDE9160102F044FE079BCDE9100183F8FA
:1021F0000080159B012B23D0079B159ADDF83880B2
:1022000003EB02090022304B3046394602F030FE23
:102210000F46064603F0DCF8054602F0BFFD024615
:102220000B463046394602F06BFC303508F8015B4E
:10223000C84506460F46E5D10E9B5D1E159B1D4405
:102240000022DDE91089214B4046494602F05AFC44
:1022500032463B4603F07EF8002840F09480424628
:102260004B460020194902F04BFC32463B4603F036
:102270008FF880B91D9B002BFFF6EAAD089B0E2B53
:102280003FF7E6AD1A9B089A03EBC207D7E9002394
:10229000CDE9042379E715F8013CAB46302B05F175
:1022A000FF35F8D01B9F0137FFF70ABA0B9E002EAF
:1022B0007FF451AE57E600BF00001C400000144000
:1022C0007056000860570008000024400000E03FFE
:1022D000BAF1000F3FF47AAE149D002D7FF76AAC7F
:1022E000089B3046013B394600221B93534B02F0BA
:1022F000BFFD02460F46164609F10100CDE90E6703
:1023000002F04CFD32463B4602F0B2FD00224C4B3F
:1023100002F0F8FB15950646A1F15077FFF787BB51
:10232000DDE902234FF00209CDE90E23FFF75CBB84
:10233000312301360DE4AA463923089F3546079A12
:10234000464601370AF8013BFFF7B8BA3123DDF8FA
:102350001CB0002120460BF8013B00F0C5FE089F91
:102360000237FFF7ADB9CDF824B0EFE4002240F218
:10237000AF11344B344800F03FFD002BCDF824B0B2
:102380003FF7D2ACE2E41B9E079A0136FFF7DABBB7
:102390000E9CAB4686E77FF4D9AC19F0010F7FF4B1
:1023A000CFACD3E4059B23F000431B0D1B05002B92
:1023B0003FF441AD012301350BF1010B0C933BE5DB
:1023C000129B2BBB01239A461493299340E5B9F144
:1023D000390FCDF824B0AED0002F3FF7B5ACB5E43F
:1023E0005346FFF7D9B9289A022A03DC9A46089F78
:1023F000FFF72BBA0895DDF850A0D4E4289A089589
:10240000022AF8DC9A461AE400217960FFF7A5BA9F
:10241000129B9A462993149336E5024640F2EF2127
:10242000084B094800F0E8FC084B0793FFF71EB87B
:102430000246EF21064B044800F0DEFC0000244079
:1024400000001C40885400085C5400083454000804
:102450004454000810B4034CD4F8E040A44610BC27
:10246000604700BF00000020034649B1FF2A02D8A0
:1024700001200A7070478A224FF0FF301A607047BF
:1024800008467047024B0146186801F06BBE00BF5A
:102490006C010020024B0146186801F0F9BE00BF34
:1024A0006C01002020F0030110F00300C0F10000D7
:1024B00051F8043B00F1040C4FEACC0C6FF0000221
:1024C0001CBF22FA0CF213434FF0010C4CEA0C2C07
:1024D0004CEA0C4CA3EB0C0222EA030212EACC12E7
:1024E00004BF51F8043B0430F4D0C2F1000102EA09
:1024F0000102B2FA82F2C2F11F0200EBD200704771
:102500009368013B002B936005DAD2F818C063454D
:1025100007DB0A2905D01368581C1060084619709B
:10252000704701F0E1BB00BF9BB1F8B5134406460C
:102530000F46541E5D1E01E0AC4208D03A463046BC
:1025400014F8011FFFF7DCFF431CF5D1F8BD002094
:10255000F8BD0020704700BF936810B514461BB942
:1025600018460023636010BD01F0F0FE0023A36055
:102570000023636010BD00BF2DE9F04F9FB00E46F1
:1025800092461C46039018B1036A002B00F00C81A0
:10259000B3891D0740F18C803369002B00F08880DF
:1025A000002343F220020B939AF800300594012592
:1025B0007F4CADF83120002B73D0D04603E018F8E3
:1025C000013F002B7ED0252BF9D1B8EB0A0B7CD133
:1025D00098F80030002B64D000234FF0FF3208F150
:1025E0000108CDE90723069309938DF85B301C930E
:1025F00005E0C846001B05FA00F018430690C146E6
:10260000052219F8011B204600F068F9CA46069B0E
:102610000028EED1D80644BF20228DF85B20190790
:1026200048BF2B2298F8001048BF8DF85B202A295C
:1026300062D1059A1168043200290592C0F2908097
:10264000099198F801102E296ED00322594800F004
:1026500045F940B140225749069B401A8240134336
:102660000AF1010A06931AF8011B062252488DF856
:10267000301000F033F9002878D05048002868D096
:1026800005A90091324603984D4B06A9FEF764FB5D
:10269000421C06D00B9B03440B939AF80030002B8E
:1026A0008BD1B3895B060AD40B981FB0BDE8F08FBD
:1026B0003146039800F094F800283FF471AF4FF0D2
:1026C000FF30F2E7B8EB0A0BEBD00AF1FF37B9465F
:1026D0003246039817F8011FFFF712FF09F10209AC
:1026E0000130A9EB0A09DCD0CB45F0D80B9A98F859
:1026F00000305A440B926DE7A1F13002092A88BFDD
:10270000C246A0D8099B01E009F1010999F800101F
:1027100003EB830302EB4303A1F13002092AF3D94F
:102720002E29CA46099390D19AF801102A2926D158
:10273000059B0AF102001A680433002A0593B8BF0A
:102740004FF0FF339AF8021007928246B8BF079302
:102750007BE7059B073323F007030833059399E7CD
:10276000494243F00203099106936AE705A90091E3
:1027700032460398124B06A900F0F8F988E70023C7
:10278000A1F13002092A0AF1010A07933FF65DAF71
:102790001AF8011F03EB830302EB4303A1F130029C
:1027A000092AF5D9079350E700F036FCF0E600BFA0
:1027B000AC540008B4540008B8540008590D00087F
:1027C000292500088C4600B586461346034A714603
:1027D00010685DF804EB6246FFF7CEBE6C01002086
:1027E00038B53D4B05461B680C4613B11A6A002AE2
:1027F0005AD0B4F90C3019070BD522699AB113F0ED
:10280000010221D19B0756BF6369A260A36000202B
:1028100038BDDA0658D558071CD4226943F008039E
:10282000A381002AEBD1990528D5180603F0800171
:1028300024D4D80741D49D073CD5A2600029E6D016
:1028400043F04003A38144E000226369A2605B423D
:10285000A361DCE7616B51B104F14402914204D001
:10286000284601F015FDB4F90C3000226263002106
:10287000226923F02403C4E90021CFE7214628463A
:1028800001F0C0FBB4F90C30226913F001010FD044
:1028900000206169A0604942A161002AB7D103F01C
:1028A00080010029B3D0CBE7184600F0B5FBA0E7C4
:1028B000980700D46169A160EFE76069A2604042B7
:1028C000A0610029A3D0BBE7092243F040032A609E
:1028D000A3814FF0FF3038BD6C01002030B5864633
:1028E0008007CCB215D0F4460EEB020507E0634634
:1028F00013F8011BA14206D0990705D09C466545F7
:102900006046F4D1002030BD013A72449E46A2EBED
:102910000C02032A0CD8002AF4D07346724401E05A
:102920009A42EFD0184613F8011BA142F8D130BDEE
:10293000714604EB042505EB05458E4651F8043B32
:102940006B40A3F1013020EA030313F0803FE4D190
:10295000043A032AF1D88E46DDE700BF844641EAF7
:10296000000313F0030349D1403A23D30B680360FB
:102970004B6843608B688360CB68C3600B690361FD
:102980004B6943618B698361CB69C3610B6A0362E5
:102990004B6A43628B6A8362CB6AC3620B6B0363CD
:1029A0004B6B43638B6B8363CB6BC36340304031B2
:1029B000403ADBD230320BD30B6803604B68436084
:1029C0008B688360CB68C36010301031103AF3D24B
:1029D0000C3205D351F8043B40F8043B043AF9D2D9
:1029E000043208D0D2071CBF11F8013B00F8013BAC
:1029F00001D30B8803806046704700BF082A13D3B9
:102A00008B07B1D010F00303AED0C3F10403D21A88
:102A1000DB071CBF11F8013B00F8013BA4D331F8E0
:102A2000023B20F8023B9FE7043AD9D3013A11F860
:102A3000013B00F8013BF9D20B7803704B784370EF
:102A40008B788370604670472DE9F84F92461F4699
:102A50000A698B680C469A42B8BF1A46CAF8002029
:102A600091F843300646DDF8289013B10132CAF8D8
:102A70000020226891065CD5DAF800300233CAF8EB
:102A80000030226812F0060F11461DD1E16899420C
:102A9000D8BF114618DD4FF0000804F1190B05E00E
:102AA000E568DAF80030ED1A45450CDD01235A4699
:102AB00039463046C847013008F10108F0D14FF0DF
:102AC000FF30BDE8F88F216894F84330003B18BF11
:102AD00001238A060AD53021E21882F843101A46EB
:102AE00094F845102244023382F8441039463046A7
:102AF00004F14302C8470130E1D02368A26803F023
:102B00000603042B21691BD08A4224DD4FF0000804
:102B1000521A904400251A3401E045451BDA01237E
:102B2000224639463046C847013005F10105F4D147
:102B3000C5E712F0060F11D0003B18BF0123D5E7FF
:102B4000DAF80000E3688A42A3EB000323EAE378A3
:102B5000DEDC002BDEDC0020BDE8F88FE168DAF86F
:102B600000309942D8BF114695DCADE72DE9F0471A
:102B700017460A7E84B00C46064698460C9D01F125
:102B8000430C002A35D0A2F15803D9B2202969D8C4
:102B9000202B67D8DFE813F0E500660066006600CA
:102BA0006600660066006600660066006600AB00B0
:102BB00070006600660066006600700066006600D1
:102BC0006600660021008200C50066006600B50050
:102BD0006600820066006600EB002B682268181D04
:102BE0006169286010061B6802D4520600F1DF807C
:102BF00019600023E14623613B4621463046CDF86B
:102C0000008003AAFFF720FF013020D04A46394652
:102C100030462369C047013019D02368E0689B071C
:102C2000DDF80C9018D5484516DD002504F1190A89
:102C300004E0E068A0EB0903AB420DDD012352463E
:102C400039463046C047013005F10105F1D14FF05A
:102C5000FF3004B0BDE8F0874845B8BF484604B02F
:102C6000BDE8F087012084F8422004F142090023E6
:102C7000206184F84330BFE72A682368111D1806D5
:102C8000296002D4590600F1948012681146002A86
:102C9000C0F293804FF00A0E554813E020682B686D
:102CA00010F0800F53F8041B02D1400648BF89B2D0
:102CB0006F2A2B6000F090804FF00A0E4C480023E2
:102CC00084F843306268002AA26052DB236823F054
:102CD0000403236000294CD1002A40F08380E146A0
:102CE000BEF1080F56D0ACEB0903236184E72A68D4
:102CF0000120116804322A6004F1420984F842106C
:102D0000B5E72B6800211A1D2A60D3F8009062688D
:102D10004846FFF7E3FD002862D0A0EB09006060A1
:102D2000A5E7236843F0200323607822314884F824
:102D300045202A6813F0800F52F8041B03D113F0CA
:102D4000400F18BF89B22A60DA0744BF43F020035E
:102D5000236019B9236823F0200323604FF0100E7D
:102D6000ADE75823224884F845302368E1E723681B
:102D7000DBE77546E146B1FBF5F30A4605FB131A9E
:102D8000194610F80A30AA4209F8013DF3D2BEF103
:102D9000080FA8D12368DD07A5D5626823699A4288
:102DA000A1DC302309F1FF3989F800309BE7198055
:102DB0001FE7B2F900100A4669E72D2284F8432084
:102DC0006268002AA26002DB23F0040323600A2564
:102DD0000748AE464942CDE74FF0080E04486EE77B
:102DE000606844E7037804F1420984F8423077E7E9
:102DF000C0540008D4540008144600B51A460A4BC3
:102E00000D461B6885B0DE6803464CB10749019149
:102E1000304607490294009501F0BEFC01F06AF8C3
:102E200004490C46F3E700BF6C010020E854000899
:102E3000F8540008F454000808B513460022FFF7C0
:102E4000DBFF00BF00207047024A0349034801F03E
:102E500059B800BFBC010020653C0008700100208B
:102E60000C4B416810B59942044601D000F0FAFEBF
:102E7000A168094B994202D0204600F0F3FEE168B8
:102E8000064B994204D02046BDE8104000F0EABE4F
:102E900010BD00BF60020020C802002030030020E7
:102EA000002070472DE9F84300250423294C2A49C6
:102EB0000822C4F8381104F15C002946DFF89C9020
:102EC000DFF89C80274F284EC4E90335C4E900553C
:102ED000C4E90555A560656601F0CCFB234B0822CB
:102EE000294604F1C4006367C4E90849C4E90A87B4
:102EF000C4E91A55C4E91E5526632567C4F8CC50A9
:102F0000C4F8805001F0B6FB194B2946C4F8DC30F8
:102F1000082204F1680304F59670C4F88830C4E907
:102F20002398C4E92576C4E93455C4E93855C4F872
:102F3000D850C4F83451C4F8E85001F09BFB04F1B8
:102F4000D003C4E93D98C4E93F76C4F8F030BDE849
:102F5000F88300BF60020020492E0008713F00087E
:102F6000993F0008D93F0008FD3F00080900010013
:102F700012000200F8B5254B0646D3F83831002B75
:102F80003CD0234FD7E90134013B04D51DE05A1C46
:102F900004F1680419D0B4F90C50013B002DF6D1AE
:102FA0001C4B08222946C4E90155C4E90455E360D5
:102FB00065662560A56104F15C0001F05BFBC4E976
:102FC0000D55C4E912552046F8BD3D680DB12F4698
:102FD000D8E74FF4D671304601F0C4F8044680B10A
:102FE00004230560294625460C304FF4D072A060BA
:102FF000636001F03FFB3C602F46C3E7FFF752FFE1
:10300000BFE70C2338603360DDE700BF60020020BB
:10301000BC0100200100FFFF036A03B17047044BAD
:10302000044AD3F838310262002BF7D13AE700BFE7
:1030300060020020612E0008704700BF704700BF8B
:103040000020024A024900F05DBF00BFBC01002021
:10305000452E00080020024A024900F053BF00BF7D
:10306000BC010020A12E000870B5C66905460C46BB
:103070005EB1F368A3B153F82400E8B1026843F8E5
:1030800024200023C0E9033370BD1020FFF7FAF9B4
:103090000646E861E8B10023C0E90033C0E9023325
:1030A00021220421284600F04FFFEB69F060DB6825
:1030B000002BE0D1002070BD0121284601FA04F563
:1030C0006A1D920000F040FF0028F3D0C0E90145DE
:1030D000D7E702466B21024B0248FFF78DFE00BF87
:1030E000445400082855000870B5C66905460C46CA
:1030F0004EB13CB1EB696268DB6853F82210216085
:1031000043F8224070BD1020FFF7BCF9E86120B100
:10311000C0E90066C0E90266EBE702468F21024B78
:103120000248FFF769FE00BF445400082855000814
:103130002DE9F0414FF0000E0E461C460D69074682
:1031400001F1140001680EF1010E8BB202FB034382
:10315000090C4FEA134C02FB01CC9BB203EB0C436E
:10316000754540F8043B4FEA1C44EBDC3CB1B368C6
:10317000AB4207DD06EB850301355C613561304606
:10318000BDE8F081716838460131FFF76DFF804678
:1031900090B1326906F10C01023292000C30FFF757
:1031A000DDFB314646463846FFF79EFF06EB8503BA
:1031B00001355C613561E2E70246BA21014B024804
:1031C000FFF71AFE88540008285500082DE9F84337
:1031D0001E460C4626490833174681FB032C092E50
:1031E0004FEAE3730546C3EB6C0339DD4FF0010C86
:1031F00000214FEA4C0C634501F10101F9DC28463E
:10320000FFF732FF014668B3089B092F43614FF077
:103210000103036112DC09270A34BE420BDDF61BF1
:10322000264414F8013B0A222846303BFFF780FF72
:10323000B4420146F5D10846BDE8F88304F1090916
:10324000C8463C4418F8013B0A222846303BFFF7A9
:103250006FFFA0450146F5D1B944A9F10804DCE7A8
:103260000021CCE70246D321024B0348FFF7C4FDFF
:10327000398EE3388854000828550008B0F5803F9F
:1032800003463ABF102083400020B3F1807F3CBF4B
:103290001B020830B3F1805F06D3B3F1804F0FD229
:1032A0009A0012D4033070471A01B2F1804F00F136
:1032B000040006D29B0108D45B00F3D420207047A1
:1032C0001A46002AFBDB013070470230704700BF0E
:1032D00003680246590709D0D8071FD499074BBF86
:1032E0005B089B08012002201360704799B279B9EE
:1032F0001B0CD9B2A1B11020190701D104301B0950
:10330000990712D0D90701D401305B0813607047C8
:10331000D9B241B1180714D10420F0E7002070475A
:1033200018201B0AE8E70820FBE713F0040F4FEA18
:10333000930102D00B460230E8E7DB0804D12020DD
:1033400070470320C340E1E70330DFE710B50C46C8
:103350000121FFF789FE024618B10123C0E90434B8
:1033600010BD40F24511024B0248FFF745FD00BF7A
:1033700088540008285500082DE9F04FD1F8108036
:1033800015690E46A845924685B005DB2A46534688
:1033900045468A4690461E46DAF80830DAF80410A8
:1033A00005EB0804A342B8BF0131FFF75DFE00281A
:1033B00000F08A8000F1140707EB840E774505D2F0
:1033C0003B46002243F8042B9E45FBD8143606EBFF
:1033D00088080AF11409464509EB850567D2A5EB73
:1033E0000A03153B0AF1150A23F00303AA4594BF0B
:1033F0009B464FF0000BCDF808E08246AE460394A2
:1034000005E0090C2BD1B04507F104074CD956F85B
:10341000041B8DB2002DF4D0CC463C46002301960F
:103420005CF8040B216886B28AB205FB0622000C08
:10343000090C05FB00111A4401EB124192B242EA59
:103440000142E64544F8042B4FEA1143E8D8019EB7
:1034500007EB0B02536056F8041C090CD3D0002272
:103460003B6848461D463C46944602889BB201FB99
:1034700002C202EB154243EA024344F8043B50F80F
:10348000043B25684FEA134CABB201FB0C33864575
:1034900003EB12434FEA134CE7D807EB0B02B0459E
:1034A000536007F10407B2D8DDE902E45046002C6E
:1034B00002DC05E0013C03D05EF8043D002BF9D0AE
:1034C000046105B0BDE8F08F02464FF4B171024BC4
:1034D0000248FFF791FC00BF8854000828550008F7
:1034E0002DE9F04112F003031446074682B030D1B3
:1034F0000E46A4101FD0FA69A2B39568002D3CD0E7
:1035000004F001034FF0000864103BB92868B0B123
:10351000054604F001036410002BF7D031462A461B
:103520003846FFF729FF0346314638461E46FFF767
:10353000DBFD002CEAD1304602B0BDE8F0812A461E
:1035400029463846FFF718FF28600546C0F8008076
:10355000DFE7194A013B52F823200023FFF7E8FD7B
:103560000646C6E71020FEF78DFF0246F861E0B17F
:103570000023C0E90033C0E902330121384601923B
:10358000FFF772FD019A054640B1012340F2712117
:10359000C0E90431002390600360B1E7024640F2C5
:1035A0004511064B0648FFF727FC40F2B311054BC7
:1035B0000348FFF721FC00BF60560008885400084C
:1035C00028550008445400082DE9F0470D462F699E
:1035D000AB6807EB62177C1C9C4291460646496823
:1035E0004FEA621A04DD5B009C4201F10101FADC42
:1035F0003046FFF739FD804600284BD0BAF1000F66
:1036000000F114000BDD034600210AF1050208EB6E
:10361000820243F8041B9342FBD100EB8A00296924
:1036200005F1140319F01F0903EB81012AD0844628
:103630004FF0000AC9F1200E1A6802FA09F242EAB4
:103640000A024CF8042B53F8042B994222FA0EFA82
:10365000F2D84B1B153B23F0030305F115029142F1
:1036600038BF0023043340F803A0BAF1000F00D1A3
:103670003C4630462946C8F81040FFF735FD404625
:10368000BDE8F087043853F8042B994240F8042F22
:10369000F9D8EDE702464FF4EF71024B0248FFF70D
:1036A000ABFB00BF885400082855000884460B690E
:1036B0000069C01A15D10CF1140C14310CEB830203
:1036C00010B401EB830301E0944508D252F8044D95
:1036D00053F8041D8C42F7D004D24FF0FF3010BCD9
:1036E00070477047012010BC704700BF2DE9F04FB4
:1036F00013690D698946ED1A002D144683B012D165
:1037000001F11407143202EB830207EB830301E09B
:103710009F427BD253F8046D52F8041D8E42F7D0BD
:103720007FD2012503E0FCDB00250C469146616851
:10373000FFF79AFC00287FD000F1140188464FF073
:10374000000C2769D9F8103004F1140BC56009F199
:10375000140504F1100205EB830A0BEB870ECDF87C
:1037600004B055F8044B52F8046F1FFA84FBB3B24F
:10377000A3EB0B03240C6344C4EB164404EB234477
:103780009BB243EA0443AA4548F8043B4FEA244C61
:10379000E7D8AAEB0902153A22F0030209F115094C
:1037A000CA4538BF0022DDF804B00BEB0205043532
:1037B0000A44AE452C4602F104061DD9A1EB0B01CB
:1037C000E24604EB010954F8042B93B263444FEA38
:1037D000124808EB234802EB0A039BB243EA084372
:1037E000A6454FEA284CC9F80030E9D80EF1FF325F
:1037F000521B22F00302324423B952F8043D013F28
:10380000002BFAD0076103B0BDE8F08F0021FFF76D
:103810002BFC50B101220023C0E9042303B0BDE812
:10382000F08F23464C46994681E7024640F2372105
:10383000054B0648FFF7E0FA024640F24521024BED
:103840000248FFF7D9FA00BF88540008285500083D
:10385000124B0A460B40A3F15073002B03DD0022EC
:103860001946104670475B42B3F1A07F4FEA2351DF
:1038700006DA4FF4002300220B4119461046704728
:1038800014391E29D4BF4FF0004201224FF000032B
:10389000D8BFCA4010461946704700BF0000F07FED
:1038A000F8B5056900F1140404EB850555F8046CBE
:1038B0002F1F3046FFF7E2FCC0F120020A28034622
:1038C0000A602DDDBC42A0F10B0217D255F8083C6E
:1038D00002B3C2F1200723FA07F196400E4393404A
:1038E000A5F1080246F07F51944241F4401115D2EF
:1038F00055F80C2CFA4013431846F8BD0B2808D095
:10390000002306FA02F242F07F51184641F44011BA
:10391000F8BD002346F07F5141F440111846F8BD30
:10392000C0F10B0C26FA0CF2BC4242F07F512CBFC6
:10393000002255F8082C03F1150338BF22FA0CF2C7
:1039400006FA03F31343184641F44011F8BD00BFD3
:10395000F0B5012183B016461F46FFF785FB0546EB
:10396000002845D0C7F30A54C7F313030CB143F43E
:103970008013002E019314D101A8FFF7A9FC0121A7
:10398000019B20306B61296114B3089BA4F233447E
:1039900004441C60099BC0F135001860284603B040
:1039A000F0BD68460096FFF793FCDDE9002330B1D7
:1039B000C0F1200103FA01F1C3400A430193002B37
:1039C0000CBF012102216A61AB612961002CDCD1AD
:1039D00005EB8102A0F232431069089A1360FFF7E9
:1039E0004DFC099BC0EB41101860284603B0F0BDA8
:1039F000024640F20F31024B0248FFF7FDF900BFCB
:103A000088540008285500082DE9F04383B0884603
:103A100069468146FFF744FF04460D46404601A92A
:103A2000FFF73EFFD9F81030D8F81020A3EB020CB6
:103A3000DDE900329B1A03EB4C13002B0BDD05EB89
:103A400003573D4602460B462046294601F03AFB05
:103A500003B0BDE8F083C3EB033301EB03594946E0
:103A6000F0E700BF172870B506460ADD00200024E5
:103A70000749084D22462B4601F0FAF9013EF9D1DB
:103A800070BD054B03EBC003D3E9040170BD00BF5B
:103A90000000F03F000024406056000801F1FF3CA8
:103AA000116902F114034FEA6C1C03EB81010CF164
:103AB000010C8B4200EB8C0C16D210B5A0F1040E59
:103AC00053F8044B99424EF8044FF9D8891A153926
:103AD00021F0030104300844844504D9002340F850
:103AE000043B8445FBD810BD844505D9002340F82C
:103AF000043B8445FBD87047704700BF03694A11F7
:103B0000934200F1140009DA00EB830302E053F85A
:103B1000042DA2B98342FAD80020704700EB82033B
:103B2000F8DD11F01F01F5D010B450F8224024FA4E
:103B300001F28A40944208D0012010BC7047012055
:103B4000704753F8042D002AF6D18342F9D800209B
:103B500010BC7047F8B5B1F90C300C461D0707468C
:103B60003AD44A68002A54DDE56A002D32D000229A
:103B70003E683A6013F4805257D101233846216AD7
:103B8000A8470246501C62D0B4F90C30E56A5907C8
:103B900005D56368D21A636B0BB1236CD21A00236C
:103BA0003846216AA847421CB4F90C303FD00022A5
:103BB00062602269DB04226000D56065616B3E6053
:103BC00041B104F14403994202D0384600F060FB51
:103BD000002363630020F8BD0E69002EFAD09B0716
:103BE00018BF00230D6808BF4B690E60AD1B8B60CA
:103BF0000CE02B463246D4F828C03846216AE0470C
:103C0000B0F1000CA5EB0C05664406DD002DF0DCE0
:103C1000E0E70A6C002AA7DCDCE7B4F90C3043F0DB
:103C200040034FF0FF30A381F8BD626DAFE7396804
:103C30001D29F4D80A4ACA40D507F0D5002262608F
:103C400022692260DA04B9D50029B6D0B6E73B680C
:103C5000002B99D01D2B01D0162BDED13E60B9E789
:103C6000010040200B69B3B110B5044682B008B121
:103C7000036A5BB1B1F90C3013B9002002B010BD7A
:103C8000204602B0BDE81040FFF764BF0191FFF786
:103C9000C3F90199EEE70020704700BFB8B138B50D
:103CA000036904463BB10C4B1D680DB12B6A53B13F
:103CB000B4F90C300BB9002038BD21462846BDE8C8
:103CC0003840FFF747BF2846FFF7A6F9F0E7034A59
:103CD0000349044800F016B96C010020BC01002023
:103CE000653C000870010020F8B506460D461446F4
:103CF00010B1036A002B37D0A269A389A2601A070A
:103D000019D52369BBB122686169D31AEDB2994212
:103D10002F4620DD0133A1680139A160511C2160CB
:103D2000157062699A420DD0A389DB0701D50A2D6F
:103D300008D03846F8BD21463046FEF751FD38B967
:103D40002369E0E721463046FFF78CFF0028F0D0DA
:103D50004FF0FF37EDE721463046FFF783FF00289D
:103D6000F6D101232268D6E7FFF756F9C4E700BF72
:103D700003460A46024908681946FFF7B5BF00BF67
:103D80006C01002010B4034CD4F8E440A44610BCED
:103D9000604700BF0000002082B049B15AB16BB14A
:103DA00013780B601278101E18BF012002B0704704
:103DB00001A9002AF3D1104602B070476FF001004C
:103DC000F4E700BF8842F0B514D98B18834211D9AB
:103DD000032A00EB020166D802F1FF3C4AB16FEA08
:103DE0000C0C0A469C4413F8011D634502F8011DA2
:103DF000F9D1F0BD032A0FD8034602F1FF3C002A97
:103E0000F7D00CF1010C013B8C4411F8012B6145FA
:103E100003F8012FF9D1F0BD41EA00039B073ED121
:103E20000F2A64D901F11004A446A2F11003203135
:103E300023F00F03194400F1100E5CF8105C0CF134
:103E4000100C4EF8105C5CF81C5C0EF1100E4EF875
:103E50001C5C5CF8185C4EF8185C5CF8145C8C45D3
:103E60004EF8145CE9D1E11812F00C0F034402F093
:103E70000F0E03F1100338D08C462EF00305043DDD
:103E80001A1F5E195CF8044B42F8044FB242F9D194
:103E90000431043329442B440EF00302ADE70346FA
:103EA00002F1FF3CADE741EA0304A4071F4602D03C
:103EB00002F1FF3C93E78C46A2F1040E2EF00306BC
:103EC0008E1B4FEA9E0E644653F8045DB4424CF8D4
:103ED000045DF8D1CEEB8E7301EB830107EB830712
:103EE0003B1F043902F0030276E7724685E703467A
:103EF0009646C1E7062008B500F0F6FC0120FCF765
:103F000095F900BF2DE9F8434FF0000980460F46B0
:103F10001646D6E90154013D10D4A389012B08D9D6
:103F2000B4F90E30013304D021464046B84749EA7F
:103F30000009013D6B1C04F16804EED13668002EC7
:103F4000E7D14846BDE8F88370B5A1FB025454B9E7
:103F5000294600F007F9064618B12A46214600F026
:103F600089FB304670BD0C2200260260F9E700BFD5
:103F700010B50C46B1F90E1000F074F9002803DBFF
:103F8000636D0344636510BDA38923F48053A3814B
:103F900010BD00BF002070472DE9F0410C46B1F97B
:103FA0000C101F46CB05054616460BD421F4805154
:103FB000A1813B4632462846B4F90E10BDE8F041D7
:103FC00000F02EBDB4F90E100223002200F03CFBDD
:103FD000B4F90C10EAE700BF10B50C46B1F90E10A9
:103FE00000F032FBB4F90C30421C0EBF23F48053B6
:103FF00043F480536065A38110BD00BFB1F90E107A
:1040000000F010BB70B5B1F90C300C46990796B0B2
:1040100007D5012204F14703C4E90432236016B036
:1040200070BDB4F90E100546002929DB6A4600F080
:104030004FFD002822DB4FF480612846019E00F0EE
:1040400091F888B3A38906F4704643F08003A381F6
:104050004FF48063B6F5005FC4E904032060DED14D
:104060002846B4F90E1000F0F1FC0028D7D0A3893F
:1040700023F0030343F00103A381D0E7B4F90C302C
:1040800013F0800F14BF40264FF480662846314657
:1040900000F068F840B1A389C4E9040643F0800346
:1040A0002060A38116B070BDB4F90C309A05B6D467
:1040B000012123F0030304F1470243F00203C4E9A2
:1040C0000421A3812260AAE770B50C46B1F90E1055
:1040D000154600291E4696B013DB6A4600F0F8FC30
:1040E00000280EDB01994FF4806301F47041A1F5C3
:1040F0000051B1FA81F14909002031602B6016B0FE
:1041000070BDA18911F0800102D000214023F3E7A6
:104110004FF48063F0E700BF70B5114E0546336879
:104120000C46BBB12146284600F0C0FC431C0146AA
:104130000CD0C41C24F00304A04205D02846611A08
:1041400000F0B4FC013001D0204670BD4FF0FF34C8
:10415000204670BD194600F0A9FC3060E2E700BFC0
:104160009C0300202DE9F843CD1C25F003050835FC
:104170000C2D38BF0C25002D064618DBA94216D899
:10418000DFF8DC8000F0F6FAD8F80420A2B114467B
:1041900003E0636822467BB11C4623685B1BF8D4AE
:1041A0000B2B1FD8A242636854D053600CE00C2341
:1041B00033600020BDE8F88329463046FFF7ACFFA6
:1041C000431C044619D00560304600F0D5FA04F1CE
:1041D0000B00231D20F00700C21A1CBF1B1AA3509E
:1041E000BDE8F8836119A242256014BF5160C8F888
:1041F0000410635163684B60E6E7D8F804701FB39E
:104200003C467F68002FFBD123683946304604EBDB
:10421000030900F04BFC814516D123683046ED1AA6
:104220002946FFF779FF01300ED02368D8F8042023
:104230002B442360536883B1A34203D01A465B68C2
:104240009C42FBD10023B0E70C233046336000F0E2
:1042500093FAAEE7C8F80430B6E7C8F80470B3E7DD
:104260009C03002038B50C46114600228446074DB9
:1042700020462A601A466446FBF77AFF431C00D0AA
:1042800038BD2B68002BFBD0236038BD5C020020BA
:10429000002950D038B551F8043C0C1F002BB8BF92
:1042A000E418054600F066FA274A13682BB1A342CA
:1042B0000CD92168601883422CD0284663601460B2
:1042C000BDE8384000F058BAA3420FD81A465B68E0
:1042D000002BF9D111685018844217D02CD3636099
:1042E00054602846BDE8384000F046BA11685018BE
:1042F000A04214D020D8216860188342EFD11868FA
:104300005B680844C4E900035460EAE723680B448F
:104310001360E6E718685B6808442060CDE7206812
:104320000144501883421160DBD1D3E900040144F9
:10433000C2E90014D5E770470C2328462B60BDE87E
:10434000384000F019BA00BFA00300209368002B8A
:1043500000F0B2802DE9F04FB1F90CC017461CF007
:10436000080F80460C4683B025D00B691BB31CF0A8
:1043700002033D682BD04FF0000B5E46DFF8A0A291
:10438000002E00F08880564533465A4628BF5346D3
:104390004046216AD4F828C0E047002840F38480D2
:1043A000BB6883441B1A361ABB60002BE8D100207F
:1043B00003B0BDE8F08F21464046FEF711FA002811
:1043C00077D1B4F90CC03D681CF00203D3D11CF0C6
:1043D000010973D14E46002E59D01CF4007F20688D
:1043E000D4F808B000F0AD80B3455A4600F2DC8046
:1043F0001CF4906F32D023696269A0EB030A02EBD0
:10440000420202EBD2720AF1010152103144914290
:1044100092BF93468B460A461CF4806F00F0E28000
:1044200011464046FFF79EFE002800F0F2805246FB
:1044300021690190FEF792FAA289019B22F4906211
:1044400042F08002A28103EB0A002361C4F814B099
:10445000ABEB0A033246B346A3602060B2460026A7
:1044600049460192FFF7AEFCA368019AA3EB0B014A
:104470002368A16013442360BB68D144A3EB0A0303
:10448000BB60002B93D0B4F90CC0002EA5D1D5E9A8
:10449000009608359FE7D5E900B6083570E7214654
:1044A0004046FFF7DFFB68B3B4F90C3043F040033C
:1044B000A3814FF0FF307BE7002070471E46BA46CD
:1044C000994618461F465EB380B34A462068216964
:1044D000B24228BF32468842636904D9A16803EB1F
:1044E000010B5A4570DC934261DC3A464046216A32
:1044F000D4F828C0E047B0F1000BD5DDB9EB0B09CB
:10450000CDD00120DAF808305F44A3EB0B03A6EB13
:104510000B06CAF80830002B3FF449AF002ED3D168
:104520006E682B460835002EFAD01F6832460A21E5
:104530003846FEF7D3F9002868D00130A0EB070910
:10454000C3E72369834217D36369B34214D86FF07A
:10455000004CB44528BFB4469CFBF3FC4A4603FB21
:104560000CF34046216AD4F828C0E047B0F1000AB5
:104570009ADDA6EB0A067FE7B345DA4628BFB246C6
:1045800049465246FFF71EFCA3682268A3EB0A03C4
:104590005244A3602260002BEBD121464046FFF736
:1045A00061FB0028E5D07FE7B346324656E739463F
:1045B0000192FFF707FC019AA36893469B1AA36038
:1045C00023681344236099E739465A46FFF7FAFBFC
:1045D000236821465B4440462360FFF743FB0028E5
:1045E0008CD061E71946404600F092F80346002857
:1045F0007FF429AF40462169FFF74AFE0C22B4F947
:104600000C30C8F8002023F080034FE7721C91465D
:104610005CE70C22B4F90C30C8F8002046E700BF74
:1046200000FCFF7F002238B5064D044608462A608C
:10463000FBF7D6FD431C00D038BD2B68002BFBD008
:10464000236038BD5C02002038B50C4611460022BC
:104650008446074D20462A601A466446FBF7D8FD7B
:10466000431C00D038BD2B68002BFBD0236038BD25
:104670005C020020830730B546D08446841805E0EC
:10468000634603F8011B9D0703D09C46A445F7D160
:1046900030BD013A0244A2EB0C02032A29D9CCB264
:1046A00004EB04240F2A04EB04442FD9A2F1100CCC
:1046B0002CF00F0C03F11005AC44C3E90044C3E92E
:1046C000024410336345F8D112F00C0F02F00F0EC4
:1046D00018D01A462EF0030C9C44AEF1040542F8A3
:1046E000044B6245FBD125F0030404330EF00302B2
:1046F0002344002ACCD0C9B21A4403F8011B9342C8
:10470000FBD130BD7246F4E70346C6E79646E0E7C4
:104710002DE9F041144641B30AB306460D4600F0B8
:10472000BDF98442074602D8B4EB500F13D8214696
:104730003046FFF717FD804650B1BC42224629465D
:1047400028BF3A46FEF70AF929463046FFF7A0FD92
:104750004046BDE8F081A8464046BDE8F081A0464D
:10476000FFF796FD4046BDE8F0811146BDE8F041F7
:10477000FFF7F8BC704700BF704700BF0CB400B52E
:1047800083B004AB53F8042B0193FDF7F5FE03B09F
:104790005DF804EB02B070470EB400B5074A82B072
:1047A00003AB0146106853F8042B0193FDF7E4FEB8
:1047B00002B05DF804EB03B0704700BF6C0100204D
:1047C00038B5C46B0CB1002038BD80210546FFF719
:1047D000C9FC0246E86330B1031F7C3243F8044F42
:1047E0009342FBD1EFE74FF0FF3038BD30B51F29C2
:1047F000054683B008D8C36B0C465BB153F8240060
:1048000043F8242003B030BD162303604FF0FF307F
:1048100003B030BD80210192FFF7A4FC019A03464A
:10482000E8630028F2D0011F00F17C05002041F868
:10483000040FA942FBD1E1E71F2938B505461ED870
:10484000C26B0C466AB152F8213053B1012B06D02D
:10485000591C10D00021204642F82410984700200F
:1048600038BD284600F018F9224601462846BDE822
:10487000384000F0FDB8162301202B6038BD162308
:104880004FF0FF302B6038BD1F292AD8C26B38B5D6
:104890000C4605469AB152F8243053B1591C0CD03D
:1048A000012B08D00025204642F82450984728467E
:1048B00038BD012038BD032038BD022038BD80211D
:1048C000FFF750FC0246E86340B10020131F02F1DD
:1048D0007C0143F8040F8B42FBD1DCE74FF0FF3043
:1048E00038BD4FF0FF30704738B5134B1F281D6897
:1048F0001DD8EA6B044662B152F820304BB1012B4F
:1049000005D0591C0FD0002142F8201098470020F4
:1049100038BD284600F0C0F8224601462846BDE8CA
:10492000384000F0A5B8162301202B6038BD1623AF
:104930004FF0FF302B6038BD6C010020114B1F2859
:1049400070B51E6808D8F36B04460D464BB153F89A
:10495000240043F8245070BD162333604FF0FF301D
:1049600070BD80213046FFF7FDFB0346F063002851
:10497000F4D00021021F7C3042F8041F8242FBD198
:10498000E5E700BF6C01002038B50B4B1D68EC6BF0
:104990000CB1002038BD80212846FFF7E3FBE86317
:1049A00038B1031F00F17C0243F8044F9342FBD15E
:1049B000EFE74FF0FF3038BD6C01002038B5174BE2
:1049C0001F281D6826D8EA6B04469AB152F8243095
:1049D00053B1591C0CD0012B08D00025204642F8B9
:1049E00024509847284638BD012038BD032038BDE3
:1049F000022038BD80212846FFF7B4FB0246E86359
:104A000040B10020131F02F17C0143F8040F8B42D8
:104A1000FBD1DBE74FF0FF3038BD00BF6C01002059
:104A200038B50C46114600228446074D20462A60C0
:104A30001A466446FBF76CFB431C00D038BD2B685C
:104A4000002BFBD0236038BD5C020020002238B56B
:104A5000064D044608462A60FBF7D4FB431C00D0F1
:104A600038BD2B68002BFBD0236038BD5C020020D2
:104A700070B50026074D0446084611462E60FBF728
:104A8000D9FB431C00D070BD2B68002BFBD02360EA
:104A900070BD00BF5C020020FBF7D4BB51F8043CA2
:104AA000181F002BBCBF0B58C0187047002238B528
:104AB000064D044608462A60FBF7B2FB431C00D0B3
:104AC00038BD2B68002BFBD0236038BD5C02002072
:104AD00070B50026074D0446084611462E60FBF7C8
:104AE00086FB431C00D070BD2B68002BFBD02360DD
:104AF00070BD00BF5C02002081F0004102E000BFF9
:104B000083F0004330B54FEA41044FEA430594EA8D
:104B1000050F08BF90EA020F1FBF54EA000C55EAC8
:104B2000020C7FEA645C7FEA655C00F0E2804FEA99
:104B30005454D4EB5555B8BF6D420CDD2C4480EA7B
:104B4000020281EA030382EA000083EA010180EAAB
:104B5000020281EA0303362D88BF30BD11F0004FF9
:104B60004FEA01314FF4801C4CEA113102D040422F
:104B700061EB410113F0004F4FEA03334CEA13336A
:104B800002D0524263EB430394EA050F00F0A78082
:104B9000A4F10104D5F1200E0DDB02FA0EFC22FA7D
:104BA00005F2801841F1000103FA0EF2801843FA71
:104BB00005F359410EE0A5F120050EF1200E012A62
:104BC00003FA0EFC28BF4CF0020C43FA05F3C018A0
:104BD00051EBE37101F0004507D54FF0000EDCF119
:104BE000000C7EEB00006EEB0101B1F5801F1BD3C2
:104BF000B1F5001F0CD349085FEA30004FEA3C0CC6
:104C000004F101044FEA445212F5800F80F09A80BB
:104C1000BCF1004F08BF5FEA500C50F1000041EBBF
:104C2000045141EA050130BD5FEA4C0C404141EBC3
:104C30000101013C28BFB1F5801FE9D291F0000FBE
:104C400004BF01460020B1FA81F308BF2033A3F16D
:104C50000B03B3F120020CDA0C3208DD02F1140C64
:104C6000C2F10C0201FA0CF021FA02F10CE002F19F
:104C70001402D8BFC2F1200C01FA02F120FA0CFC98
:104C8000DCBF41EA0C019040E41AA2BF01EB0451E1
:104C9000294330BD6FEA04041F3C1CDA0C340EDCDF
:104CA00004F11404C4F1200220FA04F001FA02F322
:104CB00040EA030021FA04F345EA030130BDC4F1E0
:104CC0000C04C4F1200220FA02F001FA04F340EAD5
:104CD0000300294630BD21FA04F0294630BD94F086
:104CE000000F83F4801306BF81F480110134013D6D
:104CF0004EE77FEA645C18BF7FEA655C29D094EADE
:104D0000050F08BF90EA020F05D054EA000C04BF5B
:104D10001946104630BD91EA030F1EBF0021002046
:104D200030BD5FEA545C05D14000494128BF41F0E5
:104D3000004130BD14F580043CBF01F5801130BD49
:104D400001F0004545F0FE4141F470014FF00000D4
:104D500030BD7FEA645C1ABF194610467FEA655C85
:104D60001CBF0B46024650EA013406BF52EA033527
:104D700091EA030F41F4002130BD00BF90F0000F15
:104D800004BF0021704730B54FF4806404F1320451
:104D90004FF000054FF0000150E700BF90F0000F0A
:104DA00004BF0021704730B54FF4806404F1320431
:104DB00010F0004548BF40424FF000013EE700BF01
:104DC00042004FEAE2014FEA31014FEA02701FBF91
:104DD00012F07F4393F07F4F81F06051704732F0C3
:104DE0007F4208BF704793F07F4F04BF41F400211A
:104DF000704730B54FF4607401F0004521F0004178
:104E00001CE700BF50EA010208BF704730B54FF001
:104E100000050AE050EA010208BF704730B511F002
:104E2000004502D5404261EB41014FF4806404F13A
:104E300032045FEA915C3FF4D8AE4FF003025FEAC0
:104E4000DC0C18BF03325FEADC0C18BF033202EB44
:104E5000DC02C2F1200300FA03FC20FA02F001FA9E
:104E600003FE40EA0E0021FA02F11444BDE600BF41
:104E700070B54FF0FF0C4CF4E06C1CEA11541DBFF0
:104E80001CEA135594EA0C0F95EA0C0F00F0DEF8BB
:104E90002C4481EA030621EA4C5123EA4C5350EAA0
:104EA000013518BF52EA033541F4801143F48013F1
:104EB00038D0A0FB02CE4FF00005E1FB02E506F082
:104EC0000042E0FB03E54FF00006E1FB03569CF0D7
:104ED000000F18BF4EF0010EA4F1FF04B6F5007FDD
:104EE00064F5407404D25FEA4E0E6D4146EB06064F
:104EF00042EAC62141EA55514FEAC52040EA5E50D8
:104F00004FEACE2EB4F1FD0C88BFBCF5E06F1ED881
:104F1000BEF1004F08BF5FEA500E50F1000041EBB8
:104F2000045170BD06F0004646EA010140EA020065
:104F300081EA0301B4EB5C04C2BFD4EB0C0541EA87
:104F4000045170BD41F480114FF0000E013C00F39C
:104F5000AB8014F1360FDEBF002001F0004170BDC0
:104F6000C4F10004203C35DA0C341BDC04F11404D9
:104F7000C4F1200500FA05F320FA04F001FA05F265
:104F800040EA020001F0004221F0004110EBD37032
:104F900021FA04F642EB06015EEA430E08BF20EA5E
:104FA000D37070BDC4F10C04C4F1200500FA04F301
:104FB00020FA05F001FA04F240EA020001F0004193
:104FC00010EBD37041F100015EEA430E08BF20EA06
:104FD000D37070BDC4F1200500FA05F24EEA020E4E
:104FE00020FA04F301FA05F243EA020321FA04F07D
:104FF00001F0004121FA04F220EA020000EBD37034
:105000005EEA430E08BF20EAD37070BD94F0000F33
:105010000FD101F00046400041EB010111F4801F67
:1050200008BF013CF7D041EA060195F0000F18BF18
:10503000704703F00046520043EB030313F4801F54
:1050400008BF013DF7D043EA0603704794EA0C0F0E
:105050000CEA135518BF95EA0C0F0CD050EA410624
:1050600018BF52EA4306D1D181EA030101F00041A1
:105070004FF0000070BD50EA410606BF10461946C9
:1050800052EA430619D094EA0C0F02D150EA0136D5
:1050900013D195EA0C0F05D152EA03361CBF104616
:1050A00019460AD181EA030101F0004141F0FE41B5
:1050B00041F470014FF0000070BD41F0FE4141F439
:1050C000780170BD70B54FF0FF0C4CF4E06C1CEA39
:1050D00011541DBF1CEA135594EA0C0F95EA0C0FEE
:1050E00000F0A7F8A4EB050481EA030E52EA0335A9
:1050F0004FEA013100F088804FEA03334FF08055CA
:1051000045EA131343EA12634FEA022245EA1115F6
:1051100045EA10654FEA00260EF000419D4208BFA7
:10512000964244F1FD0404F5407402D25B084FEA54
:105130003202B61A65EB03055B084FEA32024FF400
:1051400080104FF4002CB6EB020E75EB030E22BF5D
:10515000B61A754640EA0C005B084FEA3202B6EB1D
:10516000020E75EB030E22BFB61A754640EA5C00CC
:105170005B084FEA3202B6EB020E75EB030E22BF5C
:10518000B61A754640EA9C005B084FEA3202B6EB5D
:10519000020E75EB030E22BFB61A754640EADC001C
:1051A00055EA060E18D04FEA051545EA16754FEA7E
:1051B00006164FEAC30343EA52734FEAC2025FEA9C
:1051C0001C1CC0D111F4801F0BD141EA00014FF02B
:1051D00000004FF0004CB6E711F4801F04BF0143FC
:1051E0000020B4F1FD0C88BFBCF5E06F3FF6AFAE18
:1051F000B5EB030C04BFB6EB020C5FEA500C50F1A8
:10520000000041EB045170BD0EF0004E4EEA11312A
:1052100014EB5C04C2BFD4EB0C0541EA045170BD31
:1052200041F480114FF0000E013C90E645EA060E75
:105230008DE60CEA135594EA0C0F08BF95EA0C0FA3
:105240003FF43BAF94EA0C0F0AD150EA01347FF4EB
:1052500034AF95EA0C0F7FF425AF104619462CE7C2
:1052600095EA0C0F06D152EA03353FF4FDAE104625
:10527000194622E750EA410618BF52EA43067FF476
:10528000C5AE50EA41047FF40DAF52EA43057FF406
:10529000EBAE12E74FF0FF3C06E000BF4FF0010C11
:1052A00002E000BF4FF0010C4DF804CD4FEA410C75
:1052B0007FEA6C5C4FEA430C18BF7FEA6C5C1BD042
:1052C00001B050EA410C0CBF52EA430C91EA030FC3
:1052D00002BF90EA020F0020704710F1000F91EA20
:1052E000030F58BF994208BF90422CBFD8176FEAEE
:1052F000E37040F0010070474FEA410C7FEA6C5CBC
:1053000002D150EA013C07D14FEA430C7FEA6C5CC2
:10531000D6D152EA033CD3D05DF8040B704700BFEE
:105320008446104662468C461946634600E000BF3C
:1053300001B5FFF7B7FF002848BF10F1000F01BD0E
:105340004DF808EDFFF7F4FF0CBF012000205DF8D9
:1053500008FB00BF4DF808EDFFF7EAFF34BF01205E
:1053600000205DF808FB00BF4DF808EDFFF7E0FFF7
:1053700094BF012000205DF808FB00BF4DF808ED48
:10538000FFF7CEFF94BF012000205DF808FB00BFAF
:105390004DF808EDFFF7C4FF34BF012000205DF891
:1053A00008FB00BF4FEA410C7FEA6C5C02D150EA77
:1053B000013C0AD14FEA430C7FEA6C5C02D152EA0D
:1053C000033C02D14FF0000070474FF001007047DE
:1053D0004FEA410212F5001215D211D56FF478731D
:1053E000B3EB625212D94FEAC12343F0004343EAC0
:1053F000505311F0004F23FA02F018BF404270479B
:105400004FF00000704750EA013005D111F0004024
:1054100008BF6FF0004070474FF00000704700BFBA
:10542000494E4600696E66004E414E006E616E0048
:1054300030000000496E66696E69747900000000F2
:105440004E614E005245454E54206D616C6C6F6349
:105450002073756363656564656400002E2E2F2ECE
:105460002E2F2E2E2F2E2E2F2E2E2F2E2E2F6E65E0
:10547000776C69622F6C6962632F7374646C696204
:105480002F64746F612E630042616C6C6F632073D4
:105490007563636565646564000000004300000097
:1054A000504F5349580000002E000000232D302B90
:1054B00020000000686C4C006566674546470000A8
:1054C000303132333435363738394142434445463A
:1054D00000000000303132333435363738396162FC
:1054E00063646566000000002C2066756E63746955
:1054F0006F6E3A2000000000617373657274696F0B
:105500006E2022257322206661696C65643A2066EC
:10551000696C6520222573222C206C696E6520251C
:1055200064257325730A00002E2E2F2E2E2F2E2E6B
:105530002F2E2E2F2E2E2F2E2E2F6E65776C69621A
:105540002F6C6962632F7374646C69622F6D707263
:1055500065632E6300000000002020202020202012
:105560002020282828282820202020202020202013
:105570002020202020202020208810101010101023
:10558000101010101010101010040404040404046F
:105590000404041010101010101041414141414109
:1055A00001010101010101010101010101010101EB
:1055B00001010101101010101010424242424242FB
:1055C00002020202020202020202020202020202BB
:1055D0000202020210101010200000000000000063
:1055E00000000000000000000000000000000000BB
:1055F00000000000000000000000000000000000AB
:10560000000000000000000000000000000000009A
:10561000000000000000000000000000000000008A
:10562000000000000000000000000000000000007A
:10563000000000000000000000000000000000006A
:10564000000000000000000000000000000000005A
:10565000000000000000000000000000000000004A
:1056600005000000190000007D000000000000009F
:10567000000000000000F03F000000000000244097
:1056800000000000000059400000000000408F4072
:10569000000000000088C34000000000006AF840DD
:1056A0000000000080842E4100000000D012634101
:1056B0000000000084D797410000000065CDCD4177
:1056C000000000205FA00242000000E87648374258
:1056D000000000A2941A6D42000040E59C30A242F6
:1056E0000000901EC4BCD64200003426F56B0C436B
:1056F0000080E03779C3414300A0D8855734764312
:1057000000C84E676DC1AB43003D9160E458E14372
:10571000408CB5781DAF154450EFE2D6E41A4B44E7
:1057200092D54D06CFF08044F64AE1C7022DB5442C
:10573000B49DD9794378EA44BC89D897B2D29C3CCD
:1057400033A7A8D523F649393DA7F444FD0FA53268
:105750009D978CCF08BA5B25436FAC642806C80AB6
:105760000080E03779C34143176E05B5B5B893465D
:10577000F5F93FE9034F384D321D30F94877825A29
:085780003CBF737FDD4F15757E
:08578800D4D1FF7F01000000F5
:1057900043000000000000000000000000000000C6
:1057A00000000000000000000000000000000000F9
:1057B00043000000000000000000000000000000A6
:1057C00000000000000000000000000000000000D9
:1057D0004300000000000000000000000000000086
:1057E00000000000000000000000000000000000B9
:1057F0004300000000000000000000000000000066
:105800000000000000000000000000000000000098
:105810004300000000000000000000000000000045
:105820000000000000000000000000000000000078
:105830004300000000000000000000000000000025
:105840000000000000000000000000000000000058
:105850004300000000000000000000000000000005
:105860000000000000000000000000000000000038
:1058700069240008993D0008000000005855000800
:10588000A8540008F4540008F4540008F454000824
:10589000F4540008F4540008F4540008F4540008C8
:1058A000F4540008F4540008FFFFFFFFFFFFFFFF60
:1058B000FFFFFFFFFFFF0000010041534349490084
:1058C00000000000000000000000000000000000D8
:1058D000000000000000000000004153434949005F
:1058E00000000000000000000000000000000000B8
:1058F0000000000000000000000000007001002017
:105900000000000060020020C802002030030020D8
:105910000000000000000000000000000000000087
:105920000000000000000000000000000000000077
:105930000000000000000000000000000000000067
:105940000000000000000000000000000000000057
:085950000300000060020020CA
:0400000508000B6183
:00000001FF
